{
  "_format": "hh-sol-artifact-1",
  "contractName": "Escrow",
  "sourceName": "contracts/Escrow.sol",
  "abi": [
    {
      "inputs": [
        {
          "internalType": "address",
          "name": "_nftAddress",
          "type": "address"
        },
        {
          "internalType": "address payable",
          "name": "_seller",
          "type": "address"
        },
        {
          "internalType": "address",
          "name": "_agent",
          "type": "address"
        }
      ],
      "stateMutability": "nonpayable",
      "type": "constructor"
    },
    {
      "inputs": [],
      "name": "agent",
      "outputs": [
        {
          "internalType": "address",
          "name": "",
          "type": "address"
        }
      ],
      "stateMutability": "view",
      "type": "function"
    },
    {
      "inputs": [
        {
          "internalType": "uint256",
          "name": "_nftID",
          "type": "uint256"
        }
      ],
      "name": "approvalSale",
      "outputs": [],
      "stateMutability": "nonpayable",
      "type": "function"
    },
    {
      "inputs": [
        {
          "internalType": "uint256",
          "name": "",
          "type": "uint256"
        },
        {
          "internalType": "address",
          "name": "",
          "type": "address"
        }
      ],
      "name": "approvalStatus",
      "outputs": [
        {
          "internalType": "bool",
          "name": "",
          "type": "bool"
        }
      ],
      "stateMutability": "view",
      "type": "function"
    },
    {
      "inputs": [
        {
          "internalType": "uint256",
          "name": "",
          "type": "uint256"
        }
      ],
      "name": "buyer",
      "outputs": [
        {
          "internalType": "address",
          "name": "",
          "type": "address"
        }
      ],
      "stateMutability": "view",
      "type": "function"
    },
    {
      "inputs": [
        {
          "internalType": "uint256",
          "name": "_nftID",
          "type": "uint256"
        }
      ],
      "name": "buyerActivity",
      "outputs": [],
      "stateMutability": "payable",
      "type": "function"
    },
    {
      "inputs": [
        {
          "internalType": "uint256",
          "name": "_nftID",
          "type": "uint256"
        }
      ],
      "name": "cancelSale",
      "outputs": [],
      "stateMutability": "nonpayable",
      "type": "function"
    },
    {
      "inputs": [
        {
          "internalType": "uint256",
          "name": "",
          "type": "uint256"
        }
      ],
      "name": "escrowAmount",
      "outputs": [
        {
          "internalType": "uint256",
          "name": "",
          "type": "uint256"
        }
      ],
      "stateMutability": "view",
      "type": "function"
    },
    {
      "inputs": [],
      "name": "getBalance",
      "outputs": [
        {
          "internalType": "uint256",
          "name": "",
          "type": "uint256"
        }
      ],
      "stateMutability": "view",
      "type": "function"
    },
    {
      "inputs": [
        {
          "internalType": "uint256",
          "name": "_nftID",
          "type": "uint256"
        },
        {
          "internalType": "bool",
          "name": "_status",
          "type": "bool"
        }
      ],
      "name": "inspectorActivity",
      "outputs": [],
      "stateMutability": "nonpayable",
      "type": "function"
    },
    {
      "inputs": [
        {
          "internalType": "uint256",
          "name": "",
          "type": "uint256"
        }
      ],
      "name": "isListed",
      "outputs": [
        {
          "internalType": "bool",
          "name": "",
          "type": "bool"
        }
      ],
      "stateMutability": "view",
      "type": "function"
    },
    {
      "inputs": [],
      "name": "nftAddress",
      "outputs": [
        {
          "internalType": "address",
          "name": "",
          "type": "address"
        }
      ],
      "stateMutability": "view",
      "type": "function"
    },
    {
      "inputs": [
        {
          "internalType": "uint256",
          "name": "",
          "type": "uint256"
        }
      ],
      "name": "purchasePrice",
      "outputs": [
        {
          "internalType": "uint256",
          "name": "",
          "type": "uint256"
        }
      ],
      "stateMutability": "view",
      "type": "function"
    },
    {
      "inputs": [
        {
          "internalType": "uint256",
          "name": "_nftID",
          "type": "uint256"
        }
      ],
      "name": "sale",
      "outputs": [],
      "stateMutability": "nonpayable",
      "type": "function"
    },
    {
      "inputs": [],
      "name": "seller",
      "outputs": [
        {
          "internalType": "address payable",
          "name": "",
          "type": "address"
        }
      ],
      "stateMutability": "view",
      "type": "function"
    },
    {
      "inputs": [
        {
          "internalType": "uint256",
          "name": "_nftID",
          "type": "uint256"
        },
        {
          "internalType": "uint256",
          "name": "_purchasePrice",
          "type": "uint256"
        },
        {
          "internalType": "uint256",
          "name": "_escrowAmount",
          "type": "uint256"
        },
        {
          "internalType": "address",
          "name": "_buyer",
          "type": "address"
        }
      ],
      "name": "sellerActivity",
      "outputs": [],
      "stateMutability": "payable",
      "type": "function"
    },
    {
      "inputs": [
        {
          "internalType": "uint256",
          "name": "",
          "type": "uint256"
        }
      ],
      "name": "status",
      "outputs": [
        {
          "internalType": "bool",
          "name": "",
          "type": "bool"
        }
      ],
      "stateMutability": "view",
      "type": "function"
    },
    {
      "stateMutability": "payable",
      "type": "receive"
    }
  ],
  "bytecode": "0x60806040523480156200001157600080fd5b506040516200152b3803806200152b8339818101604052810190620000379190620001b1565b826000806101000a81548173ffffffffffffffffffffffffffffffffffffffff021916908373ffffffffffffffffffffffffffffffffffffffff16021790555081600160006101000a81548173ffffffffffffffffffffffffffffffffffffffff021916908373ffffffffffffffffffffffffffffffffffffffff16021790555080600260006101000a81548173ffffffffffffffffffffffffffffffffffffffff021916908373ffffffffffffffffffffffffffffffffffffffff1602179055505050506200020d565b600080fd5b600073ffffffffffffffffffffffffffffffffffffffff82169050919050565b6000620001348262000107565b9050919050565b620001468162000127565b81146200015257600080fd5b50565b60008151905062000166816200013b565b92915050565b6000620001798262000107565b9050919050565b6200018b816200016c565b81146200019757600080fd5b50565b600081519050620001ab8162000180565b92915050565b600080600060608486031215620001cd57620001cc62000102565b5b6000620001dd8682870162000155565b9350506020620001f0868287016200019a565b9250506040620002038682870162000155565b9150509250925092565b61130e806200021d6000396000f3fe6080604052600436106100f75760003560e01c8063960327021161008a578063e8c182f111610059578063e8c182f11461034c578063ee0ef0be14610368578063f5ff5c7614610391578063fcce4883146103bc576100fe565b80639603270214610294578063b5dddaa0146102bd578063bd94b005146102e6578063d47b88101461030f576100fe565b80634dd4acaf116100c65780634dd4acaf146101b25780635bf8633a146101ef5780635d19e56c1461021a57806377fbc4ae14610257576100fe565b806308551a531461010357806312065fe01461012e5780633f7a6cfa1461015957806342d21ef714610175576100fe565b366100fe57005b600080fd5b34801561010f57600080fd5b506101186103f9565b6040516101259190610e16565b60405180910390f35b34801561013a57600080fd5b5061014361041f565b6040516101509190610e4a565b60405180910390f35b610173600480360381019061016e9190610ed4565b610427565b005b34801561018157600080fd5b5061019c60048036038101906101979190610f3b565b6105fa565b6040516101a99190610f83565b60405180910390f35b3480156101be57600080fd5b506101d960048036038101906101d49190610f3b565b61061a565b6040516101e69190610fad565b60405180910390f35b3480156101fb57600080fd5b5061020461064d565b6040516102119190610fad565b60405180910390f35b34801561022657600080fd5b50610241600480360381019061023c9190610f3b565b610671565b60405161024e9190610e4a565b60405180910390f35b34801561026357600080fd5b5061027e60048036038101906102799190610f3b565b610689565b60405161028b9190610e4a565b60405180910390f35b3480156102a057600080fd5b506102bb60048036038101906102b69190610f3b565b6106a1565b005b3480156102c957600080fd5b506102e460048036038101906102df9190610ff4565b610a21565b005b3480156102f257600080fd5b5061030d60048036038101906103089190610f3b565b610ae0565b005b34801561031b57600080fd5b5061033660048036038101906103319190611034565b610bf8565b6040516103439190610f83565b60405180910390f35b61036660048036038101906103619190610f3b565b610c27565b005b34801561037457600080fd5b5061038f600480360381019061038a9190610f3b565b610d23565b005b34801561039d57600080fd5b506103a6610d8f565b6040516103b39190610fad565b60405180910390f35b3480156103c857600080fd5b506103e360048036038101906103de9190610f3b565b610db5565b6040516103f09190610f83565b60405180910390f35b600160009054906101000a900473ffffffffffffffffffffffffffffffffffffffff1681565b600047905090565b600160009054906101000a900473ffffffffffffffffffffffffffffffffffffffff1673ffffffffffffffffffffffffffffffffffffffff163373ffffffffffffffffffffffffffffffffffffffff16146104b7576040517f08c379a00000000000000000000000000000000000000000000000000000000081526004016104ae906110d1565b60405180910390fd5b60008054906101000a900473ffffffffffffffffffffffffffffffffffffffff1673ffffffffffffffffffffffffffffffffffffffff166323b872dd3330876040518463ffffffff1660e01b8152600401610514939291906110f1565b600060405180830381600087803b15801561052e57600080fd5b505af1158015610542573d6000803e3d6000fd5b5050505060016003600086815260200190815260200160002060006101000a81548160ff021916908315150217905550826004600086815260200190815260200160002081905550816005600086815260200190815260200160002081905550806006600086815260200190815260200160002060006101000a81548173ffffffffffffffffffffffffffffffffffffffff021916908373ffffffffffffffffffffffffffffffffffffffff16021790555050505050565b60076020528060005260406000206000915054906101000a900460ff1681565b60066020528060005260406000206000915054906101000a900473ffffffffffffffffffffffffffffffffffffffff1681565b60008054906101000a900473ffffffffffffffffffffffffffffffffffffffff1681565b60056020528060005260406000206000915090505481565b60046020528060005260406000206000915090505481565b6007600082815260200190815260200160002060009054906101000a900460ff166106cb57600080fd5b6008600082815260200190815260200160002060006006600084815260200190815260200160002060009054906101000a900473ffffffffffffffffffffffffffffffffffffffff1673ffffffffffffffffffffffffffffffffffffffff1673ffffffffffffffffffffffffffffffffffffffff16815260200190815260200160002060009054906101000a900460ff1661076557600080fd5b600860008281526020019081526020016000206000600160009054906101000a900473ffffffffffffffffffffffffffffffffffffffff1673ffffffffffffffffffffffffffffffffffffffff1673ffffffffffffffffffffffffffffffffffffffff16815260200190815260200160002060009054906101000a900460ff166107ee57600080fd5b600860008281526020019081526020016000206000600260009054906101000a900473ffffffffffffffffffffffffffffffffffffffff1673ffffffffffffffffffffffffffffffffffffffff1673ffffffffffffffffffffffffffffffffffffffff16815260200190815260200160002060009054906101000a900460ff1661087757600080fd5b600460008281526020019081526020016000205447101561089757600080fd5b60006003600083815260200190815260200160002060006101000a81548160ff0219169083151502179055506000600160009054906101000a900473ffffffffffffffffffffffffffffffffffffffff1673ffffffffffffffffffffffffffffffffffffffff164760405161090b90611159565b60006040518083038185875af1925050503d8060008114610948576040519150601f19603f3d011682016040523d82523d6000602084013e61094d565b606091505b505090508061095b57600080fd5b60008054906101000a900473ffffffffffffffffffffffffffffffffffffffff1673ffffffffffffffffffffffffffffffffffffffff166323b872dd306006600086815260200190815260200160002060009054906101000a900473ffffffffffffffffffffffffffffffffffffffff16856040518463ffffffff1660e01b81526004016109eb939291906110f1565b600060405180830381600087803b158015610a0557600080fd5b505af1158015610a19573d6000803e3d6000fd5b505050505050565b600260009054906101000a900473ffffffffffffffffffffffffffffffffffffffff1673ffffffffffffffffffffffffffffffffffffffff163373ffffffffffffffffffffffffffffffffffffffff1614610ab1576040517f08c379a0000000000000000000000000000000000000000000000000000000008152600401610aa8906111e0565b60405180910390fd5b806007600084815260200190815260200160002060006101000a81548160ff0219169083151502179055505050565b600015156007600083815260200190815260200160002060009054906101000a900460ff16151503610b8b576006600082815260200190815260200160002060009054906101000a900473ffffffffffffffffffffffffffffffffffffffff1673ffffffffffffffffffffffffffffffffffffffff166108fc479081150290604051600060405180830381858888f19350505050158015610b85573d6000803e3d6000fd5b50610bf5565b600160009054906101000a900473ffffffffffffffffffffffffffffffffffffffff1673ffffffffffffffffffffffffffffffffffffffff166108fc479081150290604051600060405180830381858888f19350505050158015610bf3573d6000803e3d6000fd5b505b50565b60086020528160005260406000206020528060005260406000206000915091509054906101000a900460ff1681565b806006600082815260200190815260200160002060009054906101000a900473ffffffffffffffffffffffffffffffffffffffff1673ffffffffffffffffffffffffffffffffffffffff163373ffffffffffffffffffffffffffffffffffffffff1614610cc9576040517f08c379a0000000000000000000000000000000000000000000000000000000008152600401610cc09061124c565b60405180910390fd5b6005600083815260200190815260200160002054341015610d1f576040517f08c379a0000000000000000000000000000000000000000000000000000000008152600401610d16906112b8565b60405180910390fd5b5050565b60016008600083815260200190815260200160002060003373ffffffffffffffffffffffffffffffffffffffff1673ffffffffffffffffffffffffffffffffffffffff16815260200190815260200160002060006101000a81548160ff02191690831515021790555050565b600260009054906101000a900473ffffffffffffffffffffffffffffffffffffffff1681565b60036020528060005260406000206000915054906101000a900460ff1681565b600073ffffffffffffffffffffffffffffffffffffffff82169050919050565b6000610e0082610dd5565b9050919050565b610e1081610df5565b82525050565b6000602082019050610e2b6000830184610e07565b92915050565b6000819050919050565b610e4481610e31565b82525050565b6000602082019050610e5f6000830184610e3b565b92915050565b600080fd5b610e7381610e31565b8114610e7e57600080fd5b50565b600081359050610e9081610e6a565b92915050565b6000610ea182610dd5565b9050919050565b610eb181610e96565b8114610ebc57600080fd5b50565b600081359050610ece81610ea8565b92915050565b60008060008060808587031215610eee57610eed610e65565b5b6000610efc87828801610e81565b9450506020610f0d87828801610e81565b9350506040610f1e87828801610e81565b9250506060610f2f87828801610ebf565b91505092959194509250565b600060208284031215610f5157610f50610e65565b5b6000610f5f84828501610e81565b91505092915050565b60008115159050919050565b610f7d81610f68565b82525050565b6000602082019050610f986000830184610f74565b92915050565b610fa781610e96565b82525050565b6000602082019050610fc26000830184610f9e565b92915050565b610fd181610f68565b8114610fdc57600080fd5b50565b600081359050610fee81610fc8565b92915050565b6000806040838503121561100b5761100a610e65565b5b600061101985828601610e81565b925050602061102a85828601610fdf565b9150509250929050565b6000806040838503121561104b5761104a610e65565b5b600061105985828601610e81565b925050602061106a85828601610ebf565b9150509250929050565b600082825260208201905092915050565b7f4f6e6c792053656c6c6572206973207065726d69747465640000000000000000600082015250565b60006110bb601883611074565b91506110c682611085565b602082019050919050565b600060208201905081810360008301526110ea816110ae565b9050919050565b60006060820190506111066000830186610f9e565b6111136020830185610f9e565b6111206040830184610e3b565b949350505050565b600081905092915050565b50565b6000611143600083611128565b915061114e82611133565b600082019050919050565b600061116482611136565b9150819050919050565b7f596f7520617265206e6f7420617574686f72697a656420746f20696e7370656360008201527f74207468652070726f6a65637400000000000000000000000000000000000000602082015250565b60006111ca602d83611074565b91506111d58261116e565b604082019050919050565b600060208201905081810360008301526111f9816111bd565b9050919050565b7f4f6e6c79204275796572206973207065726d6974746564000000000000000000600082015250565b6000611236601783611074565b915061124182611200565b602082019050919050565b6000602082019050818103600083015261126581611229565b9050919050565b7f496e73756666696369656e7420416d6f756e7400000000000000000000000000600082015250565b60006112a2601383611074565b91506112ad8261126c565b602082019050919050565b600060208201905081810360008301526112d181611295565b905091905056fea26469706673582212207671404e78101e71691c0cf8be0f7634daa8f264fb3d9db992640dd90232ff2764736f6c63430008110033",
  "linkReferences": {},
  "deployedLinkReferences": {}
}